{
  "_format": "hh3-artifact-1",
  "contractName": "CredentialRegistry",
  "sourceName": "contracts/CredentialRegistry.sol",
  "abi": [
    {
      "inputs": [],
      "stateMutability": "nonpayable",
      "type": "constructor"
    },
    {
      "inputs": [],
      "name": "CredentialAlreadyAnchored",
      "type": "error"
    },
    {
      "inputs": [],
      "name": "CredentialAlreadyRevoked",
      "type": "error"
    },
    {
      "inputs": [],
      "name": "CredentialNotFound",
      "type": "error"
    },
    {
      "inputs": [],
      "name": "InvalidCredentialId",
      "type": "error"
    },
    {
      "inputs": [],
      "name": "InvalidOwner",
      "type": "error"
    },
    {
      "inputs": [],
      "name": "InvalidVcHash",
      "type": "error"
    },
    {
      "inputs": [],
      "name": "Unauthorized",
      "type": "error"
    },
    {
      "anonymous": false,
      "inputs": [
        {
          "indexed": true,
          "internalType": "string",
          "name": "credentialId",
          "type": "string"
        },
        {
          "indexed": true,
          "internalType": "bytes32",
          "name": "vcHash",
          "type": "bytes32"
        },
        {
          "indexed": true,
          "internalType": "address",
          "name": "anchoredBy",
          "type": "address"
        },
        {
          "indexed": false,
          "internalType": "uint256",
          "name": "anchoredAt",
          "type": "uint256"
        }
      ],
      "name": "CredentialAnchored",
      "type": "event"
    },
    {
      "anonymous": false,
      "inputs": [
        {
          "indexed": true,
          "internalType": "string",
          "name": "credentialId",
          "type": "string"
        },
        {
          "indexed": true,
          "internalType": "bytes32",
          "name": "vcHash",
          "type": "bytes32"
        },
        {
          "indexed": true,
          "internalType": "address",
          "name": "revokedBy",
          "type": "address"
        },
        {
          "indexed": false,
          "internalType": "uint256",
          "name": "revokedAt",
          "type": "uint256"
        }
      ],
      "name": "CredentialRevoked",
      "type": "event"
    },
    {
      "anonymous": false,
      "inputs": [
        {
          "indexed": true,
          "internalType": "address",
          "name": "previousOwner",
          "type": "address"
        },
        {
          "indexed": true,
          "internalType": "address",
          "name": "newOwner",
          "type": "address"
        }
      ],
      "name": "OwnershipTransferred",
      "type": "event"
    },
    {
      "inputs": [
        {
          "internalType": "string",
          "name": "credentialId",
          "type": "string"
        },
        {
          "internalType": "bytes32",
          "name": "vcHash",
          "type": "bytes32"
        }
      ],
      "name": "anchorCredential",
      "outputs": [
        {
          "internalType": "bool",
          "name": "",
          "type": "bool"
        }
      ],
      "stateMutability": "nonpayable",
      "type": "function"
    },
    {
      "inputs": [
        {
          "internalType": "string",
          "name": "credentialId",
          "type": "string"
        }
      ],
      "name": "getCredential",
      "outputs": [
        {
          "internalType": "bytes32",
          "name": "vcHash",
          "type": "bytes32"
        },
        {
          "internalType": "bool",
          "name": "anchored",
          "type": "bool"
        },
        {
          "internalType": "bool",
          "name": "revoked",
          "type": "bool"
        },
        {
          "internalType": "uint256",
          "name": "anchoredAt",
          "type": "uint256"
        },
        {
          "internalType": "uint256",
          "name": "revokedAt",
          "type": "uint256"
        }
      ],
      "stateMutability": "view",
      "type": "function"
    },
    {
      "inputs": [
        {
          "internalType": "string",
          "name": "credentialId",
          "type": "string"
        }
      ],
      "name": "isCredentialAnchored",
      "outputs": [
        {
          "internalType": "bool",
          "name": "",
          "type": "bool"
        }
      ],
      "stateMutability": "view",
      "type": "function"
    },
    {
      "inputs": [
        {
          "internalType": "string",
          "name": "credentialId",
          "type": "string"
        }
      ],
      "name": "isCredentialRevoked",
      "outputs": [
        {
          "internalType": "bool",
          "name": "",
          "type": "bool"
        }
      ],
      "stateMutability": "view",
      "type": "function"
    },
    {
      "inputs": [],
      "name": "owner",
      "outputs": [
        {
          "internalType": "address",
          "name": "",
          "type": "address"
        }
      ],
      "stateMutability": "view",
      "type": "function"
    },
    {
      "inputs": [
        {
          "internalType": "string",
          "name": "credentialId",
          "type": "string"
        }
      ],
      "name": "revokeCredential",
      "outputs": [
        {
          "internalType": "bool",
          "name": "",
          "type": "bool"
        }
      ],
      "stateMutability": "nonpayable",
      "type": "function"
    },
    {
      "inputs": [
        {
          "internalType": "address",
          "name": "newOwner",
          "type": "address"
        }
      ],
      "name": "transferOwnership",
      "outputs": [],
      "stateMutability": "nonpayable",
      "type": "function"
    }
  ],
  "bytecode": "0x608060405234801561000f575f80fd5b50335f806101000a81548173ffffffffffffffffffffffffffffffffffffffff021916908373ffffffffffffffffffffffffffffffffffffffff160217905550610bf58061005c5f395ff3fe608060405234801561000f575f80fd5b506004361061007b575f3560e01c8063a9b8252911610059578063a9b82529146100fd578063d091187f1461012d578063d76c098614610161578063f2fde38b146101915761007b565b80635e9a2d281461007f57806361e2d602146100af5780638da5cb5b146100df575b5f80fd5b6100996004803603810190610094919061091f565b6101ad565b6040516100a69190610984565b60405180910390f35b6100c960048036038101906100c4919061091f565b6103bd565b6040516100d69190610984565b60405180910390f35b6100e7610415565b6040516100f491906109dc565b60405180910390f35b61011760048036038101906101129190610a28565b610438565b6040516101249190610984565b60405180910390f35b6101476004803603810190610142919061091f565b610665565b604051610158959493929190610aac565b60405180910390f35b61017b6004803603810190610176919061091f565b6106d3565b6040516101889190610984565b60405180910390f35b6101ab60048036038101906101a69190610b27565b61070c565b005b5f805f9054906101000a900473ffffffffffffffffffffffffffffffffffffffff1673ffffffffffffffffffffffffffffffffffffffff163373ffffffffffffffffffffffffffffffffffffffff1614610233576040517f82b4290000000000000000000000000000000000000000000000000000000000815260040160405180910390fd5b5f838390500361026f576040517fe5aaacea00000000000000000000000000000000000000000000000000000000815260040160405180910390fd5b5f60018484604051610282929190610b8e565b90815260200160405180910390209050806001015f9054906101000a900460ff166102d9576040517fb7199d4c00000000000000000000000000000000000000000000000000000000815260040160405180910390fd5b8060010160019054906101000a900460ff1615610322576040517f7c78296200000000000000000000000000000000000000000000000000000000815260040160405180910390fd5b60018160010160016101000a81548160ff0219169083151502179055504281600301819055503373ffffffffffffffffffffffffffffffffffffffff16815f01548585604051610373929190610b8e565b60405180910390207f1ec8af635e11ef2f1fdacb71a0b7a82ad53debfb7b29f512d89be7330b818be8426040516103aa9190610ba6565b60405180910390a4600191505092915050565b5f80600184846040516103d1929190610b8e565b90815260200160405180910390209050806001015f9054906101000a900460ff16801561040c57508060010160019054906101000a900460ff165b91505092915050565b5f8054906101000a900473ffffffffffffffffffffffffffffffffffffffff1681565b5f805f9054906101000a900473ffffffffffffffffffffffffffffffffffffffff1673ffffffffffffffffffffffffffffffffffffffff163373ffffffffffffffffffffffffffffffffffffffff16146104be576040517f82b4290000000000000000000000000000000000000000000000000000000000815260040160405180910390fd5b5f84849050036104fa576040517fe5aaacea00000000000000000000000000000000000000000000000000000000815260040160405180910390fd5b5f801b8203610535576040517f3d25a74b00000000000000000000000000000000000000000000000000000000815260040160405180910390fd5b5f60018585604051610548929190610b8e565b90815260200160405180910390209050806001015f9054906101000a900460ff16156105a0576040517fa021787b00000000000000000000000000000000000000000000000000000000815260040160405180910390fd5b82815f01819055506001816001015f6101000a81548160ff0219169083151502179055505f8160010160016101000a81548160ff0219169083151502179055504281600201819055505f81600301819055503373ffffffffffffffffffffffffffffffffffffffff1683868660405161061a929190610b8e565b60405180910390207f28e61b172b19c21a8f7e14942edb886f7fe88d9ab9f48a5cdd6f5156d85b6fc7426040516106519190610ba6565b60405180910390a460019150509392505050565b5f805f805f806001888860405161067d929190610b8e565b90815260200160405180910390209050805f0154816001015f9054906101000a900460ff168260010160019054906101000a900460ff168360020154846003015495509550955095509550509295509295909350565b5f600183836040516106e6929190610b8e565b90815260200160405180910390206001015f9054906101000a900460ff16905092915050565b5f8054906101000a900473ffffffffffffffffffffffffffffffffffffffff1673ffffffffffffffffffffffffffffffffffffffff163373ffffffffffffffffffffffffffffffffffffffff1614610790576040517f82b4290000000000000000000000000000000000000000000000000000000000815260040160405180910390fd5b5f73ffffffffffffffffffffffffffffffffffffffff168173ffffffffffffffffffffffffffffffffffffffff16036107f5576040517f49e27cff00000000000000000000000000000000000000000000000000000000815260040160405180910390fd5b5f805f9054906101000a900473ffffffffffffffffffffffffffffffffffffffff169050815f806101000a81548173ffffffffffffffffffffffffffffffffffffffff021916908373ffffffffffffffffffffffffffffffffffffffff1602179055508173ffffffffffffffffffffffffffffffffffffffff168173ffffffffffffffffffffffffffffffffffffffff167f8be0079c531659141344cd1fd0a4f28419497f9722a3daafe3b4186f6b6457e060405160405180910390a35050565b5f80fd5b5f80fd5b5f80fd5b5f80fd5b5f80fd5b5f8083601f8401126108df576108de6108be565b5b8235905067ffffffffffffffff8111156108fc576108fb6108c2565b5b602083019150836001820283011115610918576109176108c6565b5b9250929050565b5f8060208385031215610935576109346108b6565b5b5f83013567ffffffffffffffff811115610952576109516108ba565b5b61095e858286016108ca565b92509250509250929050565b5f8115159050919050565b61097e8161096a565b82525050565b5f6020820190506109975f830184610975565b92915050565b5f73ffffffffffffffffffffffffffffffffffffffff82169050919050565b5f6109c68261099d565b9050919050565b6109d6816109bc565b82525050565b5f6020820190506109ef5f8301846109cd565b92915050565b5f819050919050565b610a07816109f5565b8114610a11575f80fd5b50565b5f81359050610a22816109fe565b92915050565b5f805f60408486031215610a3f57610a3e6108b6565b5b5f84013567ffffffffffffffff811115610a5c57610a5b6108ba565b5b610a68868287016108ca565b93509350506020610a7b86828701610a14565b9150509250925092565b610a8e816109f5565b82525050565b5f819050919050565b610aa681610a94565b82525050565b5f60a082019050610abf5f830188610a85565b610acc6020830187610975565b610ad96040830186610975565b610ae66060830185610a9d565b610af36080830184610a9d565b9695505050505050565b610b06816109bc565b8114610b10575f80fd5b50565b5f81359050610b2181610afd565b92915050565b5f60208284031215610b3c57610b3b6108b6565b5b5f610b4984828501610b13565b91505092915050565b5f81905092915050565b828183375f83830152505050565b5f610b758385610b52565b9350610b82838584610b5c565b82840190509392505050565b5f610b9a828486610b6a565b91508190509392505050565b5f602082019050610bb95f830184610a9d565b9291505056fea2646970667358221220a442b983b9c7fc207644cb6c3f2fe3c176fcb01e244310050e75cda9a3de2c7e64736f6c63430008180033",
  "linkReferences": {},
  "deployedLinkReferences": {},
  "immutableReferences": {},
  "inputSourceName": "project/contracts/CredentialRegistry.sol",
  "buildInfoId": "solc-0_8_24-ec06856fd3b6c6a456d8e82d127d12ab2f4c8f39"
}